:020000040800F2
:1000000000200020112D0008C9070008CB070008B8
:1000100000000000000000000000000000000000E0
:10002000000000000000000000000000CD070008F4
:100030000000000000000000CF070008D107000802
:10004000612D000800000000612D0008612D0008EE
:10005000612D0008612D0008612D0008612D000848
:1000600000000000612D0008612D0008612D0008CE
:10007000612D0008612D0008612D000800000000BE
:10008000612D00080000000000000000612D000844
:1000900000000000612D0008612D0008612D00089E
:1000A000612D0008612D0008612D0008612D0008F8
:0800B000612D000800000000B2
:1000B8000023C25C0133002AFBD1581E70470000A0
:1000C80002B4714649084900095C49008E4402BCE3
:1000D8007047C04603B47146490840004900095EAC
:1000E80049008E4403BC7047002243088B4274D3F6
:1000F80003098B425FD3030A8B4244D3030B8B4221
:1001080028D3030C8B420DD3FF22090212BA030C29
:100118008B4202D31212090265D0030B8B4219D30A
:1001280000E0090AC30B8B4201D3CB03C01A52412A
:10013800830B8B4201D38B03C01A5241430B8B4272
:1001480001D34B03C01A5241030B8B4201D30B035B
:10015800C01A5241C30A8B4201D3CB02C01A524182
:10016800830A8B4201D38B02C01A5241430A8B4245
:1001780001D34B02C01A5241030A8B4201D30B022E
:10018800C01A5241CDD2C3098B4201D3CB01C01A48
:10019800524183098B4201D38B01C01A5241430952
:1001A8008B4201D34B01C01A524103098B4201D340
:1001B8000B01C01A5241C3088B4201D3CB00C01AAD
:1001C800524183088B4201D38B00C01A5241430825
:1001D8008B4201D34B00C01A5241411A00D201464A
:1001E800524110467047FFE701B5002000F0F0F8D3
:1001F80002BDC0460029F7D076E7704703460B4397
:100208007FD4002243088B4274D303098B425FD307
:10021800030A8B4244D3030B8B4228D3030C8B4233
:100228000DD3FF22090212BA030C8B4202D3121219
:10023800090265D0030B8B4219D300E0090AC30BEE
:100248008B4201D3CB03C01A5241830B8B4201D39B
:100258008B03C01A5241430B8B4201D34B03C01A84
:100268005241030B8B4201D30B03C01A5241C30AFC
:100278008B4201D3CB02C01A5241830A8B4201D36D
:100288008B02C01A5241430A8B4201D34B02C01A57
:100298005241030A8B4201D30B02C01A5241CDD2FC
:1002A800C3098B4201D3CB01C01A524183098B4247
:1002B80001D38B01C01A524143098B4201D34B0130
:1002C800C01A524103098B4201D30B01C01A524193
:1002D800C3088B4201D3CB00C01A524183088B421A
:1002E80001D38B00C01A524143088B4201D34B0003
:1002F800C01A5241411A00D2014652411046704775
:100308005DE0CA0F00D04942031000D34042534079
:1003180000229C4603098B422DD3030A8B4212D339
:10032800FC22890112BA030A8B420CD3890192116B
:100338008B4208D3890192118B4204D389013AD0A8
:10034800921100E08909C3098B4201D3CB01C01A7D
:10035800524183098B4201D38B01C01A5241430990
:100368008B4201D34B01C01A524103098B4201D37E
:100378000B01C01A5241C3088B4201D3CB00C01AEB
:10038800524183088B4201D38B00C01A5241D9D203
:1003980043088B4201D34B00C01A5241411A00D284
:1003A8000146634652415B10104601D34042002B80
:1003B80000D54942704763465B1000D3404201B5FF
:1003C800002000F005F802BD0029F8D016E77047B4
:1003D8007047C0468446100062468C461900634642
:1003E80000E0C0461FB506F099FA002801D40021A4
:1003F800C8421FBD10B506F0D9F94042013010BD02
:1004080010B506F08BFA002801DB002010BD012092
:1004180010BDC04610B506F081FA002801DD0020A5
:1004280010BD012010BDC04610B506F003FA002823
:1004380001DC002010BD012010BDC04610B506F03B
:10044800F9F9002801DA002010BD012010BDC046CE
:10045800002B15D1002A13D1002906DB01DC002866
:1004680006D00020C043410802E080210906002090
:1004780007B4024801A14018029003BD55FFFFFFD1
:1004880003B4684601B5029805F0F8FA019B9E4648
:1004980002B00CBC7047C0461C2101231B049842C3
:1004A80001D3000C10391B0A984201D3000A0839FD
:1004B8001B09984201D30009043902A2105C4018B4
:1004C8007047C04604030202010101010000000058
:1004D8000000000010B5002903D1FFF7DDFF203030
:1004E80002E00800FFF7D8FF10BDC0460448054BDE
:1004F80010B5834203D0044B002B00D0984710BDA1
:10050800D8010020D8010020000000000648074953
:10051800091A8B10C90FC91810B5491003D0044B1C
:10052800002B00D0984710BDD8010020D80100202A
:100538000000000010B5074C2378002B09D1FFF705
:10054800D5FF054B002B02D0044800E000BF012373
:10055800237010BDD801002000000000E0790008D9
:10056800054B10B5002B03D00449054800E000BF37
:10057800FFF7CCFF10BDC04600000000DC010020E2
:10058800E079000872B6FEE700B593B03422002186
:1005980005A803F071FA1022002101A803F06CFAF3
:1005A8008020800001F004FB02230593FE330893AA
:1005B8000023099340220A920C9305A800F0ECFD51
:1005C80000280DD10723019300230293039304937A
:1005D800002101A801F08EF8002803D113B000BD56
:1005E800FFF7D0FFFFF7CEFF70B582B001F08AFBAE
:1005F800FFF7CAFF00F044F800F08CF801F0BCFBEC
:1006080002F09AF8011E164B187024D1154803F011
:100618003DF9642001F09CFB01F0D3FF0100124B6F
:100628001870124803F0CCF802F066FB104E3060E8
:10063800716002F02DFA04000D000E4B1C605D6025
:10064800326873680C480094019503F0B9F80A20E1
:1006580001F07EFBE8E7094803F0B2F8D9E7C046A5
:1006680008020020F879000809020020347A0008FE
:1006780000020020F8010020487A00080C7A0008DF
:10068800F0B5C64600B588B01422002103A803F0CF
:10069800F3F91E4B596B202211435963596B0A40D9
:1006A8000092009A5A6B012422435A635A6B2240E3
:1006B8000192019A5A6B02252A435A635B6B2B40BD
:1006C8000293029BA023DB0598460022082118000C
:1006D80001F068FA0E4F01220221380001F062FA97
:1006E80008230393049400260596069503A940461B
:1006F80001F09EF9039504940596069603A938001F
:1007080001F096F908B080BCB846F0BD0010024070
:100718000004005010B51148114B036082235B00A0
:10072800436000238360E022D200C260036143611A
:10073800802292008261C361036243628362FA3A53
:10074800FF3AC26203630833436300F0CBF9002821
:1007580000D110BDFFF716FFFBE7C0460C020020D2
:100768000030014010B588B004001422002103A80D
:1007780003F082F92268104B9A4201D008B010BDEC
:100788000E4B1A6C802149010A431A641A6C0A40FC
:100798000192019A596B0122114359635B6B1A400C
:1007A8000292029B46230393443B0493A02003A98F
:1007B800C00501F03DF9E1E70030014000100240BA
:1007C800FEE7FEE77047704710B501F0AFFA10BDBD
:1007D80082B00A4B196C012211431964196C0A4042
:1007E8000092009ADA6B802149050A43DA63DB6BD1
:1007F8000B400193019B02B07047C04600100240B5
:10080800F0B5D6464F464646C0B582B006000D0044
:1008180090461F0001F096FA0A9B181A8146B944BF
:1008280001F090FA82462C4B1B685B011B0D4A466F
:100838005343019333689C682C40641B63425C41BA
:10084800444542D07B1CF5D001F07CFA5346C01ACF
:10085800484508D2019A002A00D04A46019B013B2C
:1008680001939146E6E732685368E0218B43536071
:10087800726882235B009A420CD0B26A80239B0183
:100888009A4216D05D230122F254013B0022F25411
:1008980003201BE0B36880221202934203D0802217
:1008A800D2009342E9D13268136840218B43136028
:1008B800E3E73268136809490B401360326811682E
:1008C80080239B010B431360DCE7002002B0E0BCEF
:1008D800BA46B146A846F0BD08000020FFDFFFFF7A
:1008E800F0B5DE4657464E464546E0B583B00700AC
:1008F8000D00160098466B460022DA7001F022FAC5
:100908000C9B181A4044814601F01CFA82463B6849
:100918009B46344B1B689A00D218D3009B1A1B0DB8
:100928004A465343019302E04346013311D13B68E1
:100938009C682C40B4424DD0C023DB009D42F3D1CB
:10094800002EF1D15B461B7BDBB26A46D370D378AD
:10095800EAE701F0F7F95346C01A484508D2019A68
:10096800002A00D04A46019B013B01939146DEE7ED
:100978003A685368E0218B4353607A6882235B00AE
:100988009A420CD0BA6A80239B019A4216D05D2302
:100998000122FA54013B0022FA5403201BE0BB68F1
:1009A80080221202934203D08022D2009342E9D1DE
:1009B8003A68136840218B431360E3E73A68136889
:1009C80009490B4013603A68116880239B010B4367
:1009D8001360DCE7002003B0F0BCBB46B246A94672
:1009E800A046F0BD08000020FFDFFFFF70B582B011
:1009F80004000D001600C02100922B0000224901BE
:100A0800FFF76EFF002818D100962B0000228021E6
:100A18002000FFF7F5FE002816D1C02100962B0014
:100A28000022C9002000FFF75BFF00280AD0236ED0
:100A3800202213432366032004E0236E202213435D
:100A48002366032002B070BD236E20221343236661
:100A58000320F7E770B582B004000D001600426865
:100A680082235B009A420FD000962B00002280213F
:100A78002000FFF7C5FE002815D1626882235B00BD
:100A88009A4216D002B070BD836880221202934247
:100A980003D08022D2009342E6D122681368402115
:100AA8008B431360E0E7236E202213432366032061
:100AB800E8E7A36880221202934203D08022D20082
:100AC8009342DFD1C02100962B000022C9002000EC
:100AD800FFF706FF0028D5D0236E20221343236694
:100AE8000320CFE770B5041E00D178E0436A002BDD
:100AF80007D142680533FF339A4205D00023C3610A
:100B080002E00023036143610023A3625D33E35CD9
:100B1800002B5AD05D230222E25422681368402138
:100B28008B431360E368E022D200934254D9002239
:100B3800F02109018B4205D0E021C9008B4201D088
:100B48000023A3626368822149000B40A1688420C6
:100B5800000201400B432069022101400B436069F8
:100B6800012108400343A0698025AD0028400343C4
:100B7800E569382028400343256A8020284003433C
:100B8800A06A8025AD012840256803432B60608B4F
:100B980004230340656A102028400343656B08203E
:100BA80028400343E068F0252D01284003432068CE
:100BB800134343602268D3690A480340D361002382
:100BC80023665D33E154002070BD5C330022E2549B
:100BD8002000FFF7C7FD9DE780225201A8E701200A
:100BE800F2E7C046FFF7FFFFF0B5CE4600B584B088
:100BF8000400019191461D005C23C35C012B00D1C8
:100C0800C9E05C230122C25401F09CF806005D2370
:100C1800E35CDFB2012B00D0A9E00199002900D1E3
:100C2800A6E04B46002B00D1A2E05D230322E2544C
:100C380000232366A1634A46A287E28723644422ED
:100C4800A3520232A3522365E364A26880231B02E5
:100C58009A421ED0226813685B0603D413684021A9
:100C68000B431360E268E023DB009A4239D96368DA
:100C7800002B02D04B46012B20D1A26B236812888F
:100C8800DA60A36B0233A363E38F013B9BB2E38774
:100C980014E02268136840218B43136022681168AE
:100CA8008023DB010B431360D4E701F04BF8801B72
:100CB800A84201D36B1C66D1002D66D0E18F89B2A2
:100CC80000293CD0226893689B07EED5A36B1B884C
:100CD800D360A36B0233A363E38F013B9BB2E3872B
:100CE800ECE76368002B02D04B46012B14D1A26BB2
:100CF800236812781A73A36B0133A363E38F013B54
:100D08009BB2E38708E001F01DF8801BA84201D3DD
:100D18006B1C3CD1002D3CD0E18F89B200290ED04C
:100D2800226893689B07EED5A36B1B781373A36B9C
:100D38000133A363E38F013B9BB2E387ECE7320007
:100D480029002000FFF752FE002801D02023236647
:100D5800A368002B06D103932368DA6803929B6883
:100D68000393039B236E002B02D1002700E0022788
:100D78005D230122E254013B0022E254380004B012
:100D880080BCB946F0BD0327F2E70327F0E7032745
:100D9800EEE70327ECE70227F0E70000F0B583B0A1
:100DA8000400009101921E00089D5C23C35C012B86
:100DB80000D116E15C230122C25400F0C3FF0700F2
:100DC8005D23E35CD9B26268012B0BD082235B0000
:100DD8009A4200D0ECE0A368002B00D0F1E004298F
:100DE80000D0F0E0009B002B00D1EEE0019B002B2F
:100DF80000D1ECE0002E00D1EBE05D23E35C042B96
:100E080002D05D230522E25400232366019A22645E
:100E18004622A652023AA652009AA263E687A687FD
:100E2800E3642365E268E023DB009A4223D9226861
:100E380053686D490B40536023681A68520603D4FF
:100E48001A6840210A431A60E268E023DB009A42EC
:100E580054D96368002B01D0012E0AD1A26B2368F4
:100E68001288DA60A36B0233A363E38F013B9BB262
:100E7800E38701262EE02268516880235B010B433B
:100E88005360D9E7A36B1B88D360A36B0233A363BA
:100E9800E38F013B9BB2E387002622689368DB0758
:100EA80010D54623E35A9BB2002B0BD0D268236C93
:100EB8001A80236C023323644622A35A013B9BB257
:100EC800A352012600F03EFFC01BA84202D36B1CB0
:100ED80000D080E0E38F9BB2002B04D14633E35A65
:100EE8009BB2002B59D0226893689B07D5D5E38F16
:100EF8009BB2002BD1D0012ECFD1C3E76368002B62
:100F080001D0012E0AD1A26B236812781A73A36B41
:100F18000133A363E38F013B9BB2E38701261DE006
:100F280022689368DB0710D54623E35A9BB2002B4F
:100F38000BD0236C127B1A70236C01332364462276
:100F4800A35A013B9BB2A352012600F0FBFEC01B33
:100F5800A84201D36B1C40D1002D40D0E38F9BB237
:100F6800002B04D14633E35A9BB2002B15D02268DC
:100F780093689B07D4D5E38F9BB2002BD0D0012E6A
:100F8800CED1A36B1B781373A36B0133A363E38FD9
:100F9800013B9BB2E3870026C2E73A002900200004
:100FA800FFF724FD002804D020232366012000E059
:100FB80002205D230122E254013B0022E25403B0E7
:100FC800F0BD0220F5E70220F3E70120F1E7012058
:100FD800EFE70120EDE70320EBE70320E9E7032033
:100FE800E7E70220EBE7C046FFEFFFFFF0B5C64694
:100FF80000B584B00400039190461D004268822326
:101008005B009A4245D05C23E35C012B00D1BDE034
:101018005C230122E25400F095FE07005D23E35CA7
:10102800DEB2012B00D09DE00399002900D19AE09F
:101038004346002B00D196E05D230422E2540023AE
:101048002366216440324146A1520232A152A36371
:10105800A387E387E3642365E268E023DB009A4221
:1010680024D9226853684A490B405360A2688023F8
:101078001B029A4221D0226813685B0603D41368C6
:1010880040210B431360E268E023DB009A4228D931
:1010980045E08368002BB6D15D330422C254009525
:1010A80043460A00FFF77AFE060062E022685168AC
:1010B80080235B010B435360D8E722681368402103
:1010C8008B4313602268136832490B401360D2E7E0
:1010D80000F038FEC01BA84201D36B1C4ED1002D76
:1010E8004ED04623E15A89B200292DD02268936850
:1010F800DB07EDD5236C127B1A70236C0133236454
:101108004622A35A013B9BB2A352EAE700F01AFE1B
:10111800C01BA84201D36B1C34D1002D34D0462308
:10112800E15A89B200290FD022689368DB07EDD510
:10113800D268236C1A80236C023323644622A35A94
:10114800013B9BB2A352EAE73A0029002000FFF7CF
:1011580081FC002801D020232366236E002B02D1B6
:10116800002600E002265D230122E254013B002212
:10117800E254300004B080BCB846F0BD0326F2E764
:101188000326F0E70326EEE70326ECE70226F0E75E
:10119800FFEFFFFFFFBFFFFF70B582B0041E00D155
:1011A80029E20368DB0739D5C14A916838230B4027
:1011B800D16803220A40102B26D0082B26D063685A
:1011C8008022520293427FD0A022D202934200D1C1
:1011D80081E0B74B1A68B7490A401A601A68B649DD
:1011E8000A401A606368002B00D180E000F0AAFD75
:1011F8000500AF4B1B689B0310D400F0A3FD401BF8
:101208006428F6D90320F7E1032AD6D1A84B1B6836
:101218009B0303D56368002B00D1EFE123689B078C
:1012280031D5A34A916838230B40D16803220A407C
:10123800102B6AD0002B6BD19D4A1268520503D53A
:10124800E268002A00D1DBE1994842689B490A40DC
:10125800616909020A434260002B0DD1036898496D
:101268000B4021690B4303600368DB0A07221A401D
:10127800944BD340944A1360944B186800F016FDC1
:10128800002800D0BEE123681B0700D481E0884B0A
:101298009A6838231340182B73D0A369002B00D108
:1012A800B4E0834A136E01210B43136600F04AFD34
:1012B80005007F4B1B6E9B076BD400F043FD401B62
:1012C8000228F6D9032097E1794A116880235B0246
:1012D8000B43136086E7764B19688022D2020A43D3
:1012E8001A601968802252020A431A607AE700F0ED
:1012F80029FD05006E4B1B689B038FD500F022FD6E
:10130800401B6428F6D9032076E1022A92D193E79C
:10131800E368002B22D0664A136869490B402169AB
:101328000B431360116880235B000B43136000F0CC
:1013380009FD05005E4B1B685B0506D400F002FD45
:10134800401B0228F6D9032056E159494B685B4AED
:1013580013406269120213434B6094E7544A1368BE
:101368005B490B40136000F0EDFC0500504B1B6817
:101378005B0588D500F0E6FC401B0228F6D903205F
:101388003AE14B4B1B6E9B0703D5A369002B00D199
:101398003AE123685B0700D4A2E0454B9A683823FA
:1013A8001340202B45D0424BDB6BDB004AD4404B2B
:1013B800DA6B802149050A43DA63DB6B0B40019342
:1013C800019B0125434B1B68DB053DD5A368012B19
:1013D8004ED0052B52D0364BDA6D01218A43DA659F
:1013E800DA6D03318A43DA65A368002B50D000F028
:1013F800A9FC06002E4BDB6D9B076FD400F0A2FC06
:10140800801B354B9842F5D90320F5E0284A136E26
:1014180001218B43136600F095FC0500244B1B6EDD
:101428009B07B6D500F08EFC401B0228F6D9032096
:10143800E2E01F4BDB6D9B0752D5A368002B4FD111
:101448000120D9E00025BDE7224A116880235B000E
:101458000B43136000F076FC06001E4B1B68DB058F
:10146800B4D400F06FFC801B0228F6D90320C3E037
:101478000F4AD36D01210B43D365B5E70C4BDA6DE9
:1014880004210A43DA65DA6D03390A43DA65ABE702
:1014980000F058FC0600064BDB6D9B071ED500F0DC
:1014A80051FC801B0C4B9842F5D90320A4E0C046A0
:1014B80000100240FFFFFEFFFFFFFBFFFF80FFFF62
:1014C800FFC7FFFF0024F4000800002004000020EC
:1014D800FFFEFFFF0070004088130000012D1ED0A2
:1014E800E369002B00D191E04F4A916838220A4005
:1014F800102A5ED0022B18D04B4A13684B490B4078
:10150800136000F01FFC0400474B1B689B0149D582
:1015180000F018FC001B0228F6D903206CE0424AB0
:10152800D36B43490B40D363DAE73F4A13683F491B
:101538000B40136000F006FC05003B4B1B689B0149
:1015480006D500F0FFFB401B0228F6D9032053E024
:10155800354AD36837491940236A606A0343A06A49
:1015680000020343E06A0343206B03430B43D36049
:10157800116880235B040B431360D16880235B05EB
:101588000B43D36000F0DEFB0400274B1B689B0174
:1015980006D400F0D7FB001B0228F6D903202BE065
:1015A800002029E0204AD36823490B40D36000205B
:1015B80022E0012B2CD01C4BDA6803231340216A4C
:1015C8008B4227D170231340616A8B4224D1FE21BC
:1015D800C9011140A36A1B0299421FD1F8239B033A
:1015E8001340E16A8B421BD1520F5207236B9A4278
:1015F80018D1002000E0012002B070BD0120FBE7F7
:101608000120F9E70120F7E70120F5E70020F3E7DB
:101618000120F1E70120EFE70120EDE70120EBE7EA
:101628000120E9E70120E7E700100240FFFFFFFE85
:10163800FFFFFFEF8C80C11FFCFFFEEF10B52A4BA8
:101648009B6838221A4207D1274B1A68D20A072307
:1016580013402648D84010BD234B9A6838231340BE
:10166800082B3BD0204B9A6838231340102B0DD001
:101678001D4B9A6838231340202B31D01A4B9A6897
:1016880038231340182B26D00020E4E7164AD168E7
:101698000D3B0B40D2681209072111400131032B81
:1016A8000FD01248FEF720FD0F4BDA68120A7F238D
:1016B800134058430C4BD968490F0131FEF714FD0C
:1016C800C9E70B48FEF710FD074BDA68120A7F23BB
:1016D80013405843EEE7FA20C001BCE70448BAE7D4
:1016E80080200002B7E7C046001002400024F40042
:1016F80000127A0070B504000D00002800D1AAE09D
:10170800574B1A68072313408B4221D323689A0743
:101718000ED55B0705D5534A9168E023DB010B43DF
:101728009360504A936850490B40A1680B439360FB
:101738002368DB0754D56368012B20D0022B3BD0EC
:10174800002B3FD1474A126852051CD401206AE099
:10175800434A136807218B432B43136000F0F2FAC6
:1017680006003F4B1A6807231340AB42CED000F067
:10177800E9FA801B3D4A9042F3D9032053E0394AE5
:101788001268920369D537498A6807208243134350
:101798008B6000F0D7FA0600324B9B6838221A405B
:1017A8006368DB009A421BD000F0CCFA801B2F4BF9
:1017B8009842F1D9032036E02A4A12689201E2D40D
:1017C800012030E0032B05D0264AD26D9207DAD4E7
:1017D800012028E0234A126E9207D4D4012022E087
:1017E8001F4B1A6807231340AB421DD823685B07B9
:1017F80006D51C4A93681E490B40E1680B43936069
:10180800FFF71CFF174B9A68120A0F231340194A57
:101818009B009A581F231340D840174B1860174B4A
:10182800186800F043FA70BD0D4A136807218B430E
:101838002B43136000F086FA0600094B1A68072349
:101848001340AB42D2D000F07DFA801B074B984280
:10185800F3D90320E7E70120E5E70120E3E7C046E5
:101868000020024000100240FFF0FFFF8813000034
:10187800FF8FFFFF907A0008080000200400002076
:10188800014B18687047C0460800002010B5FFF7E4
:10189800F7FF064B9A68120B07231340044A9B0074
:1018A8009A581F231340D84010BDC046001002406C
:1018B800707A0008F0B583B0040003689B0362D512
:1018C800534BDB6BDB001ED4514BDA6B802149058F
:1018D8000A43DA63DB6B0B400193019B01264D4AF7
:1018E800116880235B000B43136000F02BFA05009E
:1018F800484B1B68DB0508D400F024FA401B02287B
:10190800F6D9032502E00026E9E70025002D23D1BA
:101918003F4BD96DC02292000B001340114210D0EA
:1019280062699A420DD03A4AD36D3B490B40D06D5B
:10193800802149020143D165D16D38480140D16504
:10194800D365DB0710D4002D06D1314AD36D324957
:101958000B4061690B43D365012E15D12C4AD36B1B
:101968002F490B40D3630FE000F0ECF90700284B38
:10197800DB6D9B07E7D400F0E5F9C01B294B9842C3
:10198800F5D90325DFE700252368DB0706D5204ABC
:10199800536D03218B4361680B43536523689B0692
:1019A80006D51B4A536D20490B40A1680B4353656C
:1019B80023685B040BD5164A536D9B009B0821696D
:1019C8000B43536522698023DB059A4211D02368B3
:1019D8001B050BD50E4A536D14490B40E1680B43A8
:1019E8005365E2688023DB019A4209D0280003B0DE
:1019F800F0BD074AD16880235B020B43D360E6E75A
:101A0800034AD16880235B020B43D360EEE7C046EC
:101A18000010024000700040FFFCFFFFFFFFFEFFC8
:101A2800FFFFFFEF88130000FFCFFFFFFF3FFFFF1F
:101A3800F0B5002359E086685F000324BC40A64344
:101A4800CC68BC4034438460446894434E6836098B
:101A5800012232409A402243426056E0DE080836AE
:101A6800B600375805321A4092000F249440A74315
:101A78000C69944022003A43325059E0032600E0B2
:101A88000026A64034003C43424E1832920094513E
:101A98003768EA433E00AE434C68E40201D53E0095
:101AA8002E433C4C266067683E0016404C68A402F2
:101AB80001D53E002E43374C66608426A7593E0068
:101AC80016404C68A40301D53E002E43314C8427B0
:101AD800E6518026A65932404C68E40301D52A0015
:101AE80032432C4D80242A5101330C682200DA40FD
:101AF8004ED001229A40250015401442F4D04E6879
:101B080003243440013C012C95D94C68032222401F
:101B1800032A08D0C4685E000322B24094438A684E
:101B2800B2402243C2604C6803222240022A95D068
:101B380004685E0003221700B740BC434F683A4070
:101B4800B240224302604C68C02292021442CBD0B9
:101B58009A0814001834A4000E4EA75903241C40F8
:101B6800E4000F26A640B743A026F605B04287D06A
:101B7800094EB04208D0094EB04207D0084EB042D4
:101B880000D17BE705267CE701267AE7022678E77D
:101B9800F0BDC04600180240000400500008005084
:101BA800000C0050002A01D0816170478162FCE777
:101BB80010B5104A136810490B4003431360802383
:101BC8009B00984201D0002010BD0C4B1B685800A8
:101BD800C01840000A49FEF787FA0130054B5B69D7
:101BE8005B0503D5002803D00138F7E70020EBE7B1
:101BF8000320E9E700700040FFF9FFFF080000201C
:101C080040420F0070B5002811DB8308134DC03324
:101C18009B005C5903221040C000FC32160086402D
:101C2800B44389010A40824022435A5170BD0F23B0
:101C38000340083B9B0806339B00094A94466344CB
:101C48005C6803221040C000FC3215008540AC439C
:101C580089010A40824022435A60E7E700E100E038
:101C680000ED00E0013880235B0498420FD2094A56
:101C780050600948036A1B021B0AC02109060B436E
:101C8800036200239360073313600020704701202C
:101C9800FCE7C04610E000E000ED00E010B5FFF7FB
:101CA800B1FF10BD10B5FFF7DDFF10BD10B5040082
:101CB800114B1978002901D1012010BDFA208000AC
:101CC800FEF712FA01000D4B1868FEF70DFAFFF740
:101CD800E9FF00280DD1032C01D90120EDE70130DF
:101CE800002221004042FFF7D9FF054B1C6000206D
:101CF800E3E70120E1E7C0460000002008000020DB
:101D08000400002010B5084A116880235B000B43CB
:101D180013600320FFF7CAFF041E02D0012420002D
:101D280010BDFEF755FDFAE700200240034B1B7873
:101D3800034A11685B1813607047C0460000002012
:101D480070020020014B18687047C04670020020DE
:101D580070B50400FFF7F6FF0500631C02D0044BC2
:101D68001B78E418FFF7EEFF401BA042FAD370BDC2
:101D7800000000207047000010B51948194B036097
:101D8800E1235B02436000238360C36003610C228C
:101D980042618361C36103624362836200F0DAFADD
:101DA800002811D10E48002100F054FB00280ED164
:101DB8000B48002100F074FB00280BD1084800F004
:101DC80029FB002809D110BDFEF7DCFBEAE7FEF786
:101DD800D9FBEDE7FEF7D6FBF0E7FEF7D3FBF2E71A
:101DE800740200200038014010B58EB0040014229F
:101DF800002109A801F040FE1822002103A801F0E3
:101E08003BFE2268174B9A4201D00EB010BD012349
:101E1800039303A8FFF74EFD002820D1124B1A6C3C
:101E28008021C9010A431A641A6C0A400192019A76
:101E3800596B0122114359635B6B13400293029B58
:101E4800C023DB00099302230A9300230B930C930E
:101E58000D92A02009A9C005FFF7EAFDD5E7FEF716
:101E680091FBDBE7003801400010024010B5140078
:101E7800012392B202485B4200F0BAF9200010BD7B
:101E88007402002010B50400836802691343426994
:101E98001343C269134301680A685B48024013434D
:101EA8000B602268536859490B40E1680B43536043
:101EB800A369226A1A4321688B6855480340134373
:101EC8008B602268D36A0F218B43616A0B43D3620C
:101ED8002368504A934229D04F4A934237D010235F
:101EE800E0698022120290423BD0042B00D183E0AB
:101EF8006CD8002B00D178E0022B65D14748626A84
:101F0800474B5200D15AFEF7EFF861684B08C018EA
:101F1800FEF7EAF80200103A424B9A4200D970E004
:101F280023680004000CD860002055E03E4B5A6D31
:101F380003231340022B0CD005D8002B0BD0012B08
:101F48000BD10333CCE7032B09D10533C8E70023B2
:101F5800C6E70223C4E70023C2E71023C0E7102323
:101F6800BEE7042B2DD022D8002B24D0022B1CD165
:101F78002A48626A2A4B5200D15AFEF7B5F8400047
:101F880061684B08C018FEF7AFF80200103A254BFD
:101F98009A4234D882B20F239A434008083B034040
:101FA80013432268D360002016E0012014E0082BB8
:101FB800DFD0012010E0FFF769FC0028D9D100200C
:101FC8000AE0FFF73BFBF8E7012005E0082B02D108
:101FD8008020000293E7012001236A22A352023ADB
:101FE800A35200236367A36710BDFFF74FFC0028C7
:101FF80000D084E70020EFE7FFF720FBF7E7012098
:10200800EAE70120E8E7C046F369FFCFFFCFFFFF0B
:10201800FFF4FF1100380140004400400024F400A0
:10202800D07A0008EFFF000000100240836ADB0747
:1020380006D5026853682C490B40C16A0B435360AC
:10204800836A9B0706D50268536828490B40016BD1
:102058000B435360836A5B0706D5026853682449BB
:102068000B40416B0B435360836A1B0706D502681C
:10207800536820490B40816B0B435360836ADB062E
:1020880006D5026893681C490B40C16B0B439360EB
:10209800836A9B0606D50268936818490B40016C51
:1020A8000B439360836A5B060BD502685368144937
:1020B8000B40416C0B435360426C80235B039A4294
:1020C8000AD0836A1B0606D5026853680D490B407F
:1020D800C16C0B4353607047026853680A490B4050
:1020E800816C0B435360ECE7FFFFFDFFFFFFFEFF32
:1020F800FFFFFBFFFF7FFFFFFFEFFFFFFFDFFFFF9C
:10210800FFFFEFFFFFFFF7FFFFFF9FFFF8B5CE468A
:10211800474680B506000D0017009946089B98466B
:102128003368DC692C40641B63425C41BC4257D174
:1021380043460133F4D0FFF705FE4B46C01A40452D
:102148002ED84346002B2BD0326813685B07E7D59F
:10215800D3691B05E4D580231B011362EFF31080BC
:10216800012282F3108831680B68204C23400B60F1
:1021780080F31088EFF3108082F3108831688B6841
:1021880093438B6080F3108820238732B350043246
:10219800B3500432B35064330022F254032020E0D9
:1021A800EFF31080012282F3108831680B680F4C1E
:1021B80023400B6080F31088EFF3108082F31088BF
:1021C80031688B6893438B6080F3108820238732B3
:1021D800B3500432B35064330022F254032000E0B9
:1021E8000020C0BCB946B046F8BDC0465FFEFFFF40
:1021F800F0B5C64600B582B004000D0090461E003A
:102208008823C358202B5CD100295FD0002A5FD0D7
:10221800826880235B019A4204D10369002B01D1B3
:10222800CB0757D490230022E250083B2132E250DA
:10223800FFF788FD070054234246E2520233E25278
:10224800A26880235B019A4202D00023984613E0DB
:102258002369002B25D0002398460DE043461B88B0
:102268002268DB05DB0D936202239C46E04456237B
:10227800E25A013A92B2E2525623E35A9BB2002B39
:1022880012D000963B00002280212000FFF73EFF7D
:10229800002821D1002DE1D02A7823689A620135DF
:1022A800E5E7A8460025E7E700963B000022402125
:1022B8002000FFF72BFF002810D188232022E250AE
:1022C80000E0022002B080BCB846F0BD0120F9E76A
:1022D8000120F7E70120F5E70320F3E70320F1E702
:1022E80030B583B0040090230022C250FFF72AFDC6
:1022F800050023681B681B0710D423681B685B074D
:1023080019D420238822A3500432A3500023E36663
:102318002367083AA354002003B030BD80210C4B3A
:1023280000930300002289032000FFF7EFFE002836
:10233800E3D00320F0E78021054B00932B00002217
:10234800C9032000FFF7E2FE0028DAD00320E3E704
:10235800FFFFFF0110B5041E30D08823C358002B9F
:1023680022D088232422E2502268136801218B435B
:1023780013602000FFF786FD012814D0A36A002B04
:1023880018D1226853680E490B405360226893683D
:102398002A218B4393602268136829390B43136001
:1023A8002000FFF79DFF10BD84330022C254FFF7C1
:1023B8001BFDD6E72000FFF739FEE2E70120F2E730
:1023C800FFB7FFFFF8B50400436E002B05D10133BA
:1023D8006A228352023A8352F8BD026895686D0EEC
:1023E80007231D409268520F1340084FF85CC00045
:1023F800074EF15CFDF702FF6A23E052785DC000EA
:10240800715DFDF7FBFE6823E052E5E7F07A00080E
:10241800E87A000870B58423C35C012B15D08424A6
:10242800012606558825242343510268136811683C
:10243800B1431160064A13400022426601680B60EE
:10244800202343510255002070BD0220FCE7C046FE
:10245800FFFFFFDFF8B504000A008423C35C012BEB
:102468001BD084250120605588262423A351236886
:102478001F6819688143196020688368DB00D908E0
:10248800114381602000FFF79DFF23681F60202310
:10249800A351002363550020F8BD0220FCE700008B
:1024A800F8B504000B008422825C012A1BD0842525
:1024B8000120605588262422A251226817681168D5
:1024C800814311602268916808480140194391606E
:1024D8002000FFF777FF23681F602023A351002304
:1024E80063550020F8BD0220FCE7C046FFFFFFF15E
:1024F800F0B585B06B46DF1DD87100236A46D373EB
:10250800A025ED05002208212800FFF74BFB012636
:1025180076420B4C3300012239002000FEF764FBA1
:10252800330001220F2169442000FEF75FFD0122DC
:1025380008212800FFF736FB6B46D87B05B0F0BDB5
:102548000C020020F0B5C64600B584B06B46DE1D0F
:10255800D9717F2303400F226A4490461370A02547
:10256800ED05002208212800FFF71CFB01277F4208
:102578000B4C3B00012241462000FEF735FB3B0097
:10258800012231002000FEF72FFB04000122082160
:102598002800FFF707FB200004B080BCB846F0BD58
:1025A8000C02002000B583B001AB00221A80E03293
:1025B8001A702A3A5A70B621E020FFF7C3FF03B019
:1025C80000BD10B5D020FFF793FF10BD70B588206F
:1025D800FFF78EFF05008920FFF78AFF000280B20F
:1025E800444C23682D181D808A20FFF781FF0500C1
:1025F8008B20FFF77DFF000280B223682D185D80D5
:102608008C20FFF775FF05008D20FFF771FF000292
:1026180080B223682D189D808E20FFF769FF050082
:102628008F20FFF765FF000280B223682D18DD8038
:102638009020FFF75DFF05009120FFF759FF00028A
:1026480080B223682D181D819220FFF751FF0500E5
:102658009320FFF74DFF000280B223682D185D819B
:102668009420FFF745FF05009520FFF741FF000282
:1026780080B223682D189D819620FFF739FF050049
:102688009720FFF735FF000280B223682D18DD81FF
:102698009820FFF72DFF05009920FFF729FF00027A
:1026A80080B223682D181D829A20FFF721FF0500AC
:1026B8009B20FFF71DFF000280B223682D185D8262
:1026C8009C20FFF715FF05009D20FFF711FF000272
:1026D80080B223682D189D829E20FFF709FF050010
:1026E8009F20FFF705FF000280B223682D18DD82C6
:1026F80070BDC0460C00002010B501784901C9B270
:1027080043789B00DBB2C918C9B28378C918C9B22B
:10271800F420FFF717FF10BD10B501784901C9B2C1
:1027280043789B00DBB2C918C9B28378C918C9B20B
:10273800F520FFF707FF10BD10B582B0FFF732FF95
:1027480001A805230370033B437001338370FFF72F
:10275800D3FF040004236A46537000231370937058
:102768006846FFF7D9FF2418E4B21420FFF7F0FAFF
:10277800FFF72CFF200002B010BD70B5F720FFF75F
:10278800B7FE0400F820FFF7B3FE0500F920FFF7B5
:10279800AFFE24032D0164190009C0B2201870BDD2
:1027A80070B5FA20FFF7A4FE0400FB20FFF7A0FE97
:1027B8000500FC20FFF79CFE24032D012C43000993
:1027C800C0B2204370BD000030B5C1100C4B1A6870
:1027D80014886300C91A0225535F4B43DB120011AA
:1027E800001B404300130421525E424392139B187E
:1027F800044A13609800C0188030001230BDC046EB
:102808000C00002008030020F0B5D6464F46464687
:10281800C0B584B00390534B1B681C00DD17524AA7
:1028280001235B42A4185D4122002B0020002900EF
:1028380003F0F6F8824689464C4B1B6898461022EE
:102848009A5ED31703F0ECF806000F0043460E20FB
:10285800185EC11722002B0003F0E2F8C30B9C4658
:102868004B0461460B43420492197B4141460C26B6
:10287800895F0026CF00B6185F410096019743464E
:102888000A229A5ED3175046494603F0C9F80B0648
:10289800060A1E430F1243460820185EC11722007D
:1028A8002B0003F0BDF8040D0B0323430203921918
:1028B8007B41002080210902801859414346DA886B
:1028C800002303F0ADF84D10CC172B00234347D05D
:1028D80080235B03039A9B1A5910D807009E019F17
:1028E800801BB941224A002303F09AF82A002300EA
:1028F800FDF7AEFD04000D0043461620185EC11713
:10290800EB04660B1E436F1332003B0003F088F89C
:1029180002000B003000390003F082F8CB01460EAC
:102928001E434F1643461420185EC11722002B0081
:1029380003F076F84B03C20C1A43CB14A4197D415B
:10294800A4185D412B06200A1843434612229A5EBA
:102958001301C01804B0E0BCBA46B146A846F0BDA1
:102968000020F7E708030020000CFEFF0C00002001
:10297800350C0000F0B5C64600B582B004F0E4FEA0
:1029880004000D000022304B04F03AF80090019149
:102998002E4B1B689846188804F006FF06000F00A7
:1029A80000222B4B04F02CF802000B000098019930
:1029B80004F0EAFA0090019143460220185E04F000
:1029C800C3FE02000B000098019904F019F800906A
:1029D800019100221F4B2000290004F011F8040087
:1029E8000D0000221C4B3000390004F009F80200E9
:1029F8000B002000290004F0C7FA02000B0003F0C6
:102A0800FFFF04000D0043460420185E04F09CFEFE
:102A180002000B002000290003F0F2FF02000B0067
:102A28000098019903F048F804000D0004F050FEE6
:102A38000A4B186000220A4B2000290003F09AFB79
:102A480002B080BCB846F0BD0000103F0C0000206A
:102A58000000503F0000E03E0000203F0803002037
:102A68000000B44010B5002904D0012905D0002089
:102A7800002110BDFFF77EFFFBE7FFF7A5FE04F07E
:102A880063FE0022014B03F075FBF2E7000059409A
:102A980010B5FFF785FE0021FFF7E4FF10BD000029
:102AA800F0B5C64600B584B003907D4B186804F0B5
:102AB8004BFE00227B4B03F0A3FF00227A4B04F06D
:102AC80063FA04000D0002000B0003F099FF0600F2
:102AD8000F00764B1B6898461020185E04F034FEF1
:102AE80002000B003000390003F08AFF0022FC23AB
:102AF8009B0503F085FF06000F0043460E20185E75
:102B080004F022FE22002B0003F07AFF02000B00E3
:102B180002F0D2FF32003B0002F0CEFF0022644BED
:102B280003F06EFF06000F0043460C20185E04F009
:102B38000BFE00225F4B03F063FF02000B00300026
:102B4800390002F0B9FF0090019143460A20185E4F
:102B580004F0FAFD22002B0003F052FF22002B00A4
:102B680003F04EFF0022FB239B0503F049FF0600FC
:102B78000F0043460820185E04F0E6FD22002B00F3
:102B880003F03EFF02000B003000390002F094FF12
:102B98000022FB239B0503F033FF0022FC239B0547
:102BA80003F02EFF0022444B02F086FF04000D00C4
:102BB8004346D88804F0F8FD02000B0020002900E5
:102BC80003F01EFF04000D0000220023FDF712FC95
:102BD800002861D1039804F0B7FD02000B00002023
:102BE800364904F0D1F906000F000022344B009852
:102BF800019903F005FF02000B003000390004F0D2
:102C0800C3F900222F4B03F0FBFE22002B0003F038
:102C1800B1FA04000D0043461620185E04F094FD36
:102C280022002B0003F0ECFE22002B0003F0E8FE4C
:102C38000022F8239B0503F0E3FE06000F0043463D
:102C48001420185E04F080FD22002B0003F0D8FE4B
:102C58000022FC239B0503F0D3FE02000B0030008A
:102C6800390002F029FF06000F0043461220185EC3
:102C780004F06AFD02000B003000390002F01CFF6E
:102C88000022114B03F0BCFE22002B0002F014FFBF
:102C980004B080BCB846F0BD00200021F8E7C0466B
:102CA800080300200000E03F0040EF400C00002037
:102CB8000000D03F0000F0400000F03F000030412D
:102CC8000000303F006AB8400000B03F10B500294E
:102CD80004D0012905D00020002110BDFFF7E0FE37
:102CE800FBE7FFF791FD04F05FFD0022014B03F0C5
:102CF80087FEF2E70000703F10B5FFF73EFD0021A8
:102D0800FFF7E4FF10BD00000D488546FFF732F8D5
:102D18000C480D490D4A002302E0D458C45004332E
:102D2800C4188C42F9D30A4A0A4C002301E0136004
:102D38000432A242FBD300F0F9FEFDF755FCFEE792
:102D48000020002000000020D8010020B87E0008E4
:102D5800D801002074040020FEE7F0B51D00002310
:102D68008BB01400109F149E9D4204DA802109063E
:102D78006B181D002D23129A1370202332009A43DA
:102D88000792079B0322462B04D0453B59424B41EF
:102D9800013AFF1809AB049308AB0393139B009205
:102DA800029322002B00019700F080FF0690672E07
:102DB80019D1119BDB070ED50300DE190022002371
:102DC80020002900FDF716FB002800D009963022C4
:102DD800099BB34227D3069A099B06989B1A159A12
:102DE80013600BB0F0BD472E04D1119BDB07F2D561
:102DF800069BE2E7069BDE19079B462BDED1069B66
:102E08001B78302B0BD10022002320002900FDF76E
:102E1800F1FA002803D10123139ADB1B1360139BDB
:102E28001B68F618CAE7591C09911A70D0E7F0B563
:102E38002B2305000C0085B00270002901DA4C42F2
:102E480002336B70092C2CDD02ABDE1D20000A2139
:102E5800FDF7BAFA37003031013E200031700A21FF
:102E68000194FDF7CBF9019B0400632BEEDCBA1E3D
:102E7800A81C010013003034147002AC07349C42C3
:102E88000AD80023A24203D8093302AA9B18DB1BE5
:102E9800C018401B05B0F0BD1C7801330C7001311F
:102EA800EBE73023E418AB70281DEC70F1E7000065
:102EB800F0B595B00D0009921A9E0A93089000F09B
:102EC800E3FD036818000C93FDF7F2F80023129352
:102ED8002B680D902C7E0B930B9907223368C9053C
:102EE80045D59B1893431A000832326001221E68A8
:102EF8005F687B005B080F930E96AE64EF640E98D4
:102F08000F99A84B524204F0C1FB002831D10E980A
:102F18000F990122A34B5242FDF77CFA002828D1D1
:102F28000022002330003900FDF76AFA002803D098
:102F38002B002D2243331A709B4F472C00D99B4FEF
:102F480003230B9A2B6101339A4300232A600B93C6
:102F58000A9B290000930898099B13AA00F0E2F93C
:102F6800013000D0A1E00120404215B0F0BD073388
:102F7800B8E732003B003000390004F087FB002836
:102F88000AD0002F03DA2B002D2243331A70884F02
:102F9800472CD5D9874FD3E76B685A1C2DD10733F7
:102FA8006B6080230B9ADB00134300222B60069290
:102FB80012AA059211AA0392232208A95218029272
:102FC800049401936B683200009308983B00FFF764
:102FD800C4FE119A0700672C18D1D31C41DB6B681B
:102FE8009A423EDC1199129B994258DB2B68296161
:102FF800DB074FD5013129614CE0202221009143A4
:103008004729CED1002BCCD10133C9E7472C07D1B2
:10301800D31C03DB6B6820349342E3DA452401E0D8
:10302800652C20D8280011992200013950301191BF
:10303800FFF7FDFE129A0B9013182B61012A02DC90
:103048002A68D20701D501332B61232308AA9B18CC
:103058001B78002B00D17BE72B002D2243331A70FD
:1030680076E76524DEE7662CBCD16B68002A09DDAB
:103078002A61002B02D12968C9070BD501339B1897
:103088002B6107E0002B03D101222968114200D0EF
:103098009A1C2A61119BAB6500230B93D5E701228B
:1030A8000029ECDC9218521AE9E72A68530508D47B
:1030B8002B693A00099908980A9CA047013028D141
:1030C80051E7652C00D8DAE0A86CE96C00220023EF
:1030D800FDF790F9002833D00123374A0999089859
:1030E8000A9CA047013000D13DE7129E119BB342D4
:1030F80002DB2B68DB070CD50A9C0D9B0C9A0999FF
:103108000898A0470024013000D12CE7731EA34281
:103118000ADC2B689B0700D501E1139BE8689842FD
:1031280000DB22E7180020E72A0001230999089804
:103138000A9F1A32B847013000D114E70134E5E795
:10314800119B002B3ADC01231B4A099908980A9C19
:10315800A047013000D106E7129E119B334302D1EC
:103168002B68DB07D5D50D9B0C9A099908980A9C02
:10317800A0470023013000D1F5E60B93119B0B9A71
:103188005B42934201DC330093E72A00012309994B
:1031980008980A9C1A32A047013000D1E3E60B9B3D
:1031A8000133EAE7FFFFEF7FF87A0008FC7A0008AE
:1031B800007B0008047B0008087B0008129BAE6DAA
:1031C8000B939E4200DD1E00002E31DCF3430024E9
:1031D800DB1733400E93AE6D0E9BF31AA34230DC1F
:1031E800119B0B9A9A4238DC2B68DB0735D4119C6B
:1031F8000B9B0B9A9B1B141B9C4200DD1C00002C94
:1032080034DCE3430026DB171C40119B0B9AD31ACE
:103218001B1BB34200DC7CE72A00012309990898AC
:103228000A9F1A32B847013000D19CE60136ECE714
:1032380033003A00099908980A9CA0470130C5D183
:1032480091E62A000123099908980A9E1A32B04784
:10325800013000D187E60134BDE70D9B0C9A09992E
:1032680008980A9CA0470130C1D17CE6BA1923000E
:10327800099908980A9EB0470130C2D173E6129C9A
:10328800012C02DC01231A4236D001233A000999A5
:1032980008980A9EB047013000D164E60D9B0C9A4D
:1032A800099908980A9EB047013000D15BE6A86CDE
:1032B800E96C00220023013CFDF79CF8002819D195
:1032C80023007A1C099908980A9CA04701300DD15F
:1032D80049E62A000123099908980A9F1A32B84733
:1032E800013000D13FE60136A642F2DB2A000B9BF3
:1032F8005032DFE60026F7E73A00E3E72A00012329
:10330800099908980A9E1932B047013000D12AE677
:103318000134EB68139A9B1AA342EFDCFDE6002404
:10332800F7E7C046F7B5160001938A680B690C00E9
:103338000090934200DA130022003360433212787F
:10334800002A01D00133336023689B0602D5336815
:10335800023333602268062315001D401A4227D025
:10336800230043331B785A1E93412268920630D4B7
:10337800220001990098089D4332A847013025D0C2
:103388000622236800251340042B05D13368E5681D
:10339800ED1AEB43DB171D40A3682269934201DD58
:1033A8009B1AED180026B54220D1002010E0013507
:1033B800E36832689B1AAB42D2DD220001230199EF
:1033C8000098089F1932B8470130F0D101204042D7
:1033D800FEBD3020E1184331087021005A1C4531E8
:1033E8000978A218433202331170C1E72200012381
:1033F80001990098089F1A32B8470130E6D0013683
:10340800D1E70000F0B58BB006920A00433207936B
:10341800059004920A7E0C00109B782A09D8622A2B
:103428000BD8002A00D1C8E081490391582A00D15D
:103438009CE0250042352A7022E0100063381528E8
:10344800F7D8FCF747FE16001F00F6FFF6FFF6FF59
:10345800F6FF1F00F6FFF6FFF6FFF6FFAD004F0080
:103468008C00F6FFF6FFBE00F6FF4F00F6FFF6FFF2
:10347800900025001A684235111D196013682B70D9
:103488000123ACE018680968021D0D061FD50668FF
:103498001A60674A0A2761680392002E35DA23000A
:1034A8002D2043331870A160002916DA0A277642C6
:1034B8000392049D30003900FCF79CFE039B013DFC
:1034C8005B5C2B70330006009F42F3D92AE0066844
:1034D8001A604906DDD536B2DBE7042123688B4341
:1034E8002360E3E70868196840C9050602D4400666
:1034F80000D5B6B219604E4B0A2703936F2A00D144
:10350800023F2300002243331A706368A360002B34
:10351800CFDB042122688A432260002EC9D1049D92
:10352800002BC6D1082F09D12368DB0706D56268AE
:1035380023699A4202DC3023013D2B70049B5B1BFC
:103548002361079B210000930598069B09AAFFF7B2
:10355800E9FE013048D1012040420BB0F0BD2022E5
:1035680009680A43226078223249039121004531D3
:103578000A701968226840C9100602D4500600D59E
:10358800B6B21960D30702D5202313432360002E57
:1035980001D01027B5E72022236893432360F8E77A
:1035A8001A680D68101D4969186013682E0601D540
:1035B800196002E06D06FBD519800023049D236184
:1035C800BFE71A68111D1960156800212800626894
:1035D80000F0D3FA002801D0401B606063682361C3
:1035E8000023049A1370ACE72A002369069905980A
:1035F800079DA8470130AED023689B0715D4099BC7
:10360800E0689842A9DA1800A7E722000123069982
:103618000598079E1932B04701309CD00135E36800
:10362800099A9B1AAB42F0DCE9E70025F7E7C046A8
:103638000A7B00081B7B0008002310B50400036008
:103648004360836081814366C28103614361836112
:10365800190008225C3000F00FFA0B4B24626362F9
:103668000A4BA3620A4BE3620A4B23630A4B9C4250
:1036780005D00A4B9C4202D0094B9C4203D1200042
:10368800583000F077FA10BDA9380008D138000882
:103698000939000835390008240300208C0300206C
:1036A800F403002010B5034A0349044800F06CF8FD
:1036B80010BDC0461000002055560008200000200C
:1036C80041680B4B10B50400994201D001F0BEFFD0
:1036D800A168084B994202D0200001F0B7FFE168C9
:1036E800054B994202D0200001F0B0FF10BDC04642
:1036F800240300208C030020F403002010B5094B9C
:10370800094A04211A6009480022FFF795FF01229F
:1037180009210748FFF790FF022212210548FFF709
:103728008BFF10BD5C040020AD3600082403002088
:103738008C030020F403002010B5024800F01BFAA7
:1037480010BDC0466504002010B5024800F014FA08
:1037580010BDC0466504002010B50400FFF7ECFF5B
:10376800236A002B02D0FFF7EFFF10BD044B236242
:10377800044B1B68002BF6D1FFF7C0FFF3E7C046E8
:10378800C93600085C040020F7B514000026009034
:103798000191A5686768013F04D52468002CF8D119
:1037A8003000FEBDAB89012B08D90E22AB5E013378
:1037B80004D029000098019B984706436835EAE73A
:1037C8000FB407B5054904AB086804CB81680193B9
:1037D80001F092FD03B008BC04B018471C0000209B
:1037E800036A70B505000E008468002B01D1FFF74D
:1037F800B3FF636EDB0705D4A3899B0502D4A06DD4
:1038080000F0B9F9A3891B0702D52369002B1AD147
:103818002100280000F0D2F8002814D001256D42BC
:10382800636EDB0705D4A3899B0502D4A06D00F065
:10383800A3F9280070BD0136A360002B14DB2368B0
:103848005A1C22601970A3683178013B0029F2D113
:10385800A360002B14DA220028000A3100F06CF86B
:103868000130DBD00A25DBE7A2699A4201DC0A298C
:10387800E5D12200280000F05FF80130E3D1CDE760
:1038880023685A1C22600A221A70EBE710B5034B12
:1038980001001868FFF7A4FF10BDC0461C000020F7
:1038A80070B50C000E25495F00F018F9002803DBFD
:1038B800636D1B18636570BDA389024A1340A38119
:1038C800F9E7C046FFEFFFFFF8B51F008B89050039
:1038D8000C001600DB0505D50E23C95E0022022365
:1038E80000F0E8F8A389054A28001340A3813200B4
:1038F8000E23E15E3B0000F005F9F8BDFFEFFFFF86
:1039080070B50C000E25495F00F0D4F8A389421C5D
:1039180003D1054A1340A38170BD8022520113438D
:10392800A3816065F8E7C046FFEFFFFF10B50E23DF
:10393800C95E00F0ADF810BDF8B506000D00140022
:10394800002804D0036A002B01D1FFF705FFA36903
:10395800A360A3891B0702D52369002B09D1210085
:10396800300000F02BF8002803D001256D42280014
:10397800F8BD23692068EFB2C01A6369EDB28342CB
:1039880005DC2100300001F061FE0028EDD1A368BC
:103998000130013BA36023685A1C22601F706369D1
:1039A800834204D0A389DB07E1D50A2DDFD12100AA
:1039B800300001F04BFE0028D9D0D6E72D4B70B56A
:1039C800050018680C00002804D0036A002B01D1F8
:1039D800FFF7C2FE0C23E25E130723D4D30607D4F5
:1039E80009232B60402301201343A38140423AE07E
:1039F800520713D5616B002908D02300443399423C
:103A080002D0280000F0A8FF002363632422A389C2
:103A18009343A38100236360236923600823A28959
:103A28001343A3812369002B0BD1A0218022A389F2
:103A3800890092000B40934203D02100280001F036
:103A48005BFE0C23E25E012113000B400A420BD0FF
:103A58000023A36063695B42A3610020236983425A
:103A680001D11306BED470BD910700D46369A36069
:103A7800F3E7C0461C00002003008218934200D1DF
:103A8800704719700133F9E7004870475C0100205E
:103A9800002370B5064D040008002B6001F078FF84
:103AA800431C03D12B68002B00D0236070BDC04697
:103AB8006004002070B50400080011001A000023FB
:103AC800054D2B6001F08CFF431C03D12B68002BA4
:103AD80000D0236070BDC0466004002070B50400AB
:103AE800080011001A000023054D2B6001F080FF2B
:103AF800431C03D12B68002B00D0236070BDC04647
:103B08006004002070B50400080011001A000023AA
:103B1800054D2B60FEF7AAF9431C03D12B68002B37
:103B280000D0236070BDC0466004002070B5002638
:103B38000C4C0D4D641BA410A64209D1002603F0BD
:103B48004BFF0A4C0A4D641BA410A64205D170BD58
:103B5800B300EB5898470136EEE7B300EB589847A7
:103B68000136F2E7B07E0008B07E0008B47E000897
:103B7800B07E0008704770477047C9B282189042FB
:103B880001D10020704703788B42FBD00130F6E763
:103B9800F0B502690F6987B006000B00002002919A
:103BA800BA426DDB013FBC00143305931B19039324
:103BB800330014331C19019323680493039B04985E
:103BC8001D6801352900FCF78FFA049B0090AB4271
:103BD8002BD3059B019D9C460023059304936246C5
:103BE80008CA28689446009A99B25143059A1B0C52
:103BF8008918009A53430A0C9B181A0C89B205922B
:103C080082B2521A0499000C52189BB21114C31AAA
:103C18005B18191492B21B041A43039B049104C540
:103C28006345DCD22368002B30D03000029901F0C4
:103C380025FA002823DB34000025029914341431B6
:103C4800236801C902936B461B8982B29A1A029BA8
:103C58005219000C1B0C1B1A10141B181D1492B2BD
:103C68001B041A43039B04C48B42E9D2019ABB008C
:103C7800D3181A68002A13D0009B013300930098C8
:103C880007B0F0BD2368002B04D1013F019B043C21
:103C9800A342F7D33761C8E71A68002A04D1013F65
:103CA800019A043B9A42F7D33761E5E7F0B514006F
:103CB8001D00C6699BB006940795239F0390002EAC
:103CC8000FD1102000F092FE039B021ED86104D190
:103CD800EF21C74BC74801F091FD4660866006603A
:103CE800C660039BDB69196800290BD05A68012359
:103CF80093404A608B60039800F072FF0022039B98
:103D0800DB691A60002D1EDA01233B606B005B083B
:103D18000793079EB84BB84A3340934216D1B74B26
:103D2800229A136033031B0B234301D100F004FED6
:103D3800B34B249A0593002A02D0B24B249A1360FD
:103D480005981BB0F0BD00233B60E2E7069A079B8D
:103D58000E920F930E980F9900220023FCF74AFB4E
:103D6800071E0BD00123229A1360249B002B02D03C
:103D7800A54B249A1360A54B0593E1E718AB019373
:103D880019AB009303980E9A0F9B01F02DFA72005D
:103D98000490520D00D17BE00F9B179719039C4BA1
:103DA800090B0B439B4956180E980F9919000022CE
:103DB800994B03F0E9F8994A994B02F021FE994A88
:103DC800994B01F079FE040030000D0003F0BCFCB3
:103DD800964A974B02F014FE02000B0020002900BF
:103DE80001F06AFE04000D0003F072FC002202904C
:103DF800002320002900FCF703FB00280BD00298C1
:103E080003F0A2FC2B002200FCF7F4FA43425841CD
:103E1800029B1B1A029301231693029B162B10D8A0
:103E28000E980F99029A834BD2009B181A685B6808
:103E3800FCF7E6FA002847D0029B013B02930023D7
:103E480016930022189B08929B1B5A1E3ED50122EE
:103E5800D31A089300230D93029B002B38DB029A98
:103E68000D9B944663440D93002313920B93209B60
:103E78000124092B67D8052B02DD0024043B20937D
:103E8800209B981E032867D8FCF71AF92B3A385B51
:103E9800199B189FFF18684BFA18202A0FDD40233A
:103EA8009B1A9E40654B3000FB18DC40204303F012
:103EB8007BFC0122624B7E1ECB18179276E72023EB
:103EC80020009B1A9840F2E71690BAE70D92C3E7D4
:103ED800089B029A9B1A089353420B93002313934F
:103EE800C5E700231193219B10930A93002B13DC41
:103EF80001231A0010930A9321920DE00123F1E7A0
:103F08000023219A11939446029B63441093013332
:103F18000A93002B00DC0123039A0021D0690422B4
:103F2800150014359D421BD94160039800F014FE1A
:103F38000590002817D1B021424B2E48059AFF3131
:103F4800C9E60123DDE7002311942093013B109378
:103F58000A9300221333CFE701231193023BF6E7BC
:103F680001315200DCE7039B059ADB691A600A9B62
:103F78000E2B00D9A0E0002C00D19DE0029B002B65
:103F880064DD0F21029A2B4B0A40D2009B181E6851
:103F98005F68029B02241D11DB050AD52A4B0D40E0
:103FA8001A6A5B6A0E980F9902F0E4F80690079176
:103FB8000134254B0C93002D08D10698079932003F
:103FC8003B0002F0D7F8069007915AE001231D4202
:103FD80009D0E4180C9B30001A685B68390002F0BD
:103FE8000FFD06000F000C9B6D100833E2E7C0467A
:103FF800397B0008507B00080000F07F0F27000085
:10400800357B0008387B0008097B0008087B00081E
:104018000000F03F01FCFFFF0000F83F61436F63C1
:10402800A787D23FB3C8608B288AC63FFB799F50C9
:104038001344D33F487C00083204000012040000F7
:10404800000010FEA97B0008207C0008029B0224C7
:10405800002B16D00E980F990F225D422A40B14BC3
:10406800D2009B181A685B6802F0CAFC012700237B
:1040780006900791AC4E2D11002D00D0EBE0002BDF
:10408800A1D1069E079F169B002B00D145E1002277
:1040980030003900A54BFCF7B3F9002800D13CE10A
:1040A8000A9B002B00D138E1109B002B00DDDDE0DE
:1040B8000E9B0F9C06930794199B002B03DB029A17
:1040C8000E2A00DC5AE2119A002A00D084E2002766
:1040D8000B9D089C002C0ED00D9B002B0BDD0D9A20
:1040E8002300944200DD1300089AE41AD21A0892B9
:1040F8000D9AD31A0D930B9B002B21D0119B002BEB
:1041080000D1BEE2049E002D14D039002A00039885
:1041180000F0ECFE049A01000700039800F034FE5A
:1041280006000499039800F05BFD0B9B04965B1B4B
:104138000B9305D031000B9A039800F0D7FE04903A
:104148000121039800F008FE139B0B90002B00D16F
:10415800A6E21A000100039800F0C8FE209B002583
:104168000B90012B03DC069BAB4200D1A1E20B9B19
:104178000B9A1B6903339B00D318586800F098FD0D
:1041880020231395181A0D9BC01802001F231A40EC
:10419800184200D1A9E201339B1A042B00DC9FE2EC
:1041A8001C239B1A089AE418D21808920D9AD3185F
:1041B8000D93089B002B05DD1A000499039800F065
:1041C800F1FE04900D9B002B05DD1A000B99039856
:1041D80000F0E8FE0B90169B002B00D18EE20B99A5
:1041E800049800F04BFF002800DB87E2029B0A22BC
:1041F800013B0C9304990023039800F015FD119BD3
:104208000490002B00D172E2002339000A2203989F
:1042180000F00AFD109B0700002B03DC209B022BFB
:1042280000DD75E2002C05DD39002200039800F05E
:10423800B9FE0700139B3800002B00D1B1E2796862
:10424800039800F089FC041E00D09DE22200384B40
:10425800384839493FE53D4205D03268736802F075
:10426800CFFB3B0001346D10083605E7029B0022A6
:10427800013B0C933000314B390002F0C1FB069032
:104288000791109B01342000129303F05DFA069AFF
:10429800079B02F0B5FB2A4B002201F00DFC294BCD
:1042A8000600CF18129B002B50D1069807990022C0
:1042B800254B02F069FE32003B0004000D00FCF7BC
:1042C800B3F8002800D03DE2802109067B183200AF
:1042D80020002900FCF794F8002800D1E8E6002324
:1042E8001F000B93219B059DDB430C930023029336
:1042F8000B99039800F074FC002F00D1CBE0029BCF
:10430800002B05D0BB4203D01900039800F068FCCD
:104318003900039800F064FCBDE0029B0C930A9BF3
:10432800B1E7C046487C0008207C00080000F03F48
:10433800A97B0008507B0008EF0200000000244021
:1043480000001C400000C0FC00001440129ACE4B34
:10435800013AD2009B1818685968119B002B52D05B
:1043680002000B000020C94901F004FF32003B00A5
:1043780002F00AFE059A060094460F00059B149366
:10438800129B634412930698079903F0A1F904005D
:1043980003F0DAF902000B000698079902F0F4FD21
:1043A800149B30340690079102005D1C1C7030008D
:1043B8000B003900FCF738F800286CD1069A079BE7
:1043C8000020B34902F0E0FD02000B003000390084
:1043D800FCF72AF8002800D016E1129BAB4200D166
:1043E800F0E0002230003900AA4B02F009FB00225D
:1043F80006000F0006980799A64B02F001FB1495DA
:1044080006900791BFE732003B0002F0F9FA059DDC
:10441800129A2B00944614901591634417930698AA
:10442800079903F055F9040003F08EF90B00020018
:104438000698079902F0A8FD3034179B2C700135B7
:1044480006000F00AB4229D114981599059B129DBF
:104458009C4600228D4B654401F02EFB02000B00A8
:1044680030003900FBF7E0FF002800D0CCE0149AB8
:10447800159B0020854902F087FD02000B003000E3
:104488003900FBF7BDFF00280FD02B00013D2A782B
:10449800302AFAD01D000C9B02935DE000227D4B70
:1044A80002F0AEFA06900791B9E70E9B0F9C0693AF
:1044B8000794199B002B00DA09E6029B0E2B00DDFE
:1044C80005E6029A704BD2009B185C681B6808933B
:1044D8000994219B002B02DA0A9B002B60D0069ED0
:1044E800079F0A9B059C013B1B190A93089A099B85
:1044F8003000390001F03EFE03F0EAF8069003F0C0
:1045080023F9089A099B02F07BFA02000B0030009D
:10451800390002F039FD2300069A013430321A704E
:104528000A9A25009A4200D081E002000B0001F0AF
:10453800C3FA089A099B06000F00FBF775FF0028CD
:1045480060D1089A099B30003900FBF753FF002817
:1045580002D0069BDC0755D40499039800F040FB71
:1045680000232B70029B229A01331360249B002B9B
:1045780001D1FFF7E5FB1D60FFF7E2FB029A424B12
:10458800D2009B185C681B6808930994219B002B38
:10459800A5DA0A9B002BA2DC0A9B002B00D09EE622
:1045A8000898099900223C4B02F02AFA069A079BC0
:1045B800FBF744FF002800D091E6029B07000C930C
:1045C8000B90B6E00E9B0F9C06930794199B002B4B
:1045D80002DB029A0E2AD1DD209A012A39DC179AC9
:1045E800002A32D02D4A9B180B9D089C089A01215D
:1045F800D21808920D9A0398D3180D9300F0ACFBCB
:10460800070067E5029B0C932B001D00013B1A78FD
:10461800392A08D1059A9A42F7D10C9A059901329C
:104628000C9230220A701A7801321A7033E700228D
:10463800184B02F0E5F90022002306000F00FBF7F3
:10464800D9FE002800D151E786E73623189A9B1A2D
:10465800CAE70A9B5D1E0B9BAB4208DB5D1B0A9BEE
:10466800002BC2DA089B0A9A9C1A0023BEE70B9B10
:10467800139AEB1AD31813930B95089C00250A9BE1
:10468800B4E70B9A049957E5487C00080000E03F1E
:104698000000F03F000024400000144033040000F4
:1046A8000120209B834200DD6DE5069B002B00D096
:1046B80069E50025079B1B03AB420AD1A34B079A68
:1046C800134206D0089B0135013308930D9B013333
:1046D8000D93139B002B00D049E50120139552E55B
:1046E800042B00D165E51C335CE51300FBE7109B48
:1046F800002B33DC209B022B0ADC2FE00A9B002BCB
:1047080024DC209B022B21DD029B0C930A9B109337
:10471800109B002B00D0E5E50B990522039800F0CB
:1047280083FA01000B90049800F0A8FC002800DC34
:10473800D8E5059B059A5D1C312313700C9B01334A
:104748000C93D3E5129B1F000B93F2E7029B0C938B
:104758000A9B1093119B002B00D063E500250B9951
:104768000498FFF715FA059B30305855109B013512
:104778000400AB4200DCB8E000230A220499039845
:1047880000F052FA0490EAE739003A690C31023233
:1047980092000C3001F028F801222100039800F063
:1047A80001FC02970700059B109A0A93013B9B188E
:1047B80010930B990498FFF7EBF9029904000890FD
:1047C800049800F05BFC0B9905003A00039800F090
:1047D80071FCC368060001003034002B15D0039823
:1047E80000F0FEF9002D2DDA04990122039800F05B
:1047F800D9FB0B99049000F041FC002802DC1DD184
:10480800E3071BD5392C14D125E0049800F036FCB9
:1048180031000D90039800F0E3F9209B0D9A1343A3
:1048280026D1069A0133134206D1392C13D0002D14
:1048380004DD089C313401E0002D29DA0A9B5D1C57
:104848001C7055E5209B1D4303D10123069A134292
:10485800CAD0392C37D10A9B0A9A5E1C39231370A7
:104868003500013E3378392B5CD0013333703FE596
:10487800002D06DB209B1D4307D10123069A134216
:1048880003D10D9B002BAFDCD8E70D9B002BE0DCA0
:104898000A9B0A9A5E1C1C70109B93422ED0002320
:1048A8000A220499039800F0BFF9029B0490BB42C6
:1048B8000DD100230A220299039800F0B5F902905D
:1048C80007000A9675E70A9B01345D1CB8E7029950
:1048D80000230A22039800F0A7F9002302900A2275
:1048E8003900039800F0A0F9EAE7109B0126002B95
:1048F80000DD1E00059B9E190023029304990122E6
:10490800039800F04FFB0B99049000F0B7FB0028C8
:10491800A6DC01D1E407A3D43500013E3378302B5F
:10492800FAD0E5E4059BB3429AD10C9B059A013372
:104938000C9331231370DBE4054B249A0593054B44
:10494800002A01D0FFF7FAF9FFF7FAF90000F07F23
:104958002C7B0008347B000870B505000C1E10D0B5
:10496800043C2368002B00DAE418280000F0E4F87F
:104978001D4A1368002B05D163601460280000F0FD
:10498800E3F870BDA34208D9206821188B42F3D1FF
:1049980019685B6809182160EEE71A005B68002B4C
:1049A80001D0A342F9D911685018A0420BD1206850
:1049B8000918501811608342E0D118685B684118E3
:1049C80011605360DAE7A04202D90C232B60D5E7C7
:1049D800206821188B4203D119685B680918216087
:1049E80063605460CAE7C0466C04002010B5034BEE
:1049F8000100186800F026F810BDC0461C00002011
:104A080070B50F4E0D0031680400002902D100F086
:104A1800D9FE30602900200000F0D4FE431C03D1E9
:104A280001256D42280070BD0323C51C9D43A84283
:104A3800F8D0291A200000F0C5FE0130F2D1EFE7C6
:104A4800680400200323F7B5CD1C9D4308350600F4
:104A58000C2D34D20C25A94233D8300000F06CF864
:104A6800344F3B681C00002C2FD129003000FFF781
:104A7800C7FF0400431C58D13C682100002949D1D4
:104A8800002C4CD023683000E318019300F09AFE04
:104A9800019B834243D123683000ED1A2900FFF7B8
:104AA800AFFF01303BD023685B1923603B68002BC4
:104AB8003DD05A68A24230D100225A6012E0002D3F
:104AC800C9DA0C2333600020FEBD2168491B1ED4BF
:104AD8000B2917D962192560A34211D13A6063687E
:104AE80011605360300000F02FF8200007220B30CF
:104AF800231D9043C21A9842E6D01B1AA350E3E73D
:104B08005A60ECE76268A342D7D13A60EAE723002B
:104B18006468A8E70C004968B0E71300C7E70C23EE
:104B28003000336000F010F8CDE70560DAE75B602D
:104B3800FFDEC0466C04002010B50248FFF71BF8E2
:104B480010BDC0466404002010B50248FFF714F8F1
:104B580010BDC0466404002070B5C56906000C008D
:104B6800002D0ED11020FFF741FF021EF06104D185
:104B78006B21194B194800F041FE456085600560BE
:104B8800C560F569EB68002B13D0F369A200DB68F8
:104B98009B181868002818D101210D00A5406A1D2E
:104BA8003000920000F048FE00280CD04460856078
:104BB8000DE021220421300000F03EFEF369E86098
:104BC800DB68002BE1D1002070BD02681A60002369
:104BD8000361C360F8E7C046397B0008BA7B000868
:104BE80070B5C66905000C00002E0ED11020FFF725
:104BF800FDFE021EE86104D18F21094B094800F02F
:104C0800FDFD466086600660C660002C07D0EB6933
:104C18006268DB6892009B181A6822601C6070BD8D
:104C2800397B0008BA7B0008F7B50F0001900C002B
:104C38001E0000200D6914373B68013099B25143BA
:104C48001B0C534389190E0C9B191E0C89B21B04AB
:104C58005B1808C78542EFDC002E22D0A368AB4260
:104C680019DC616801980131FFF776FF071E05D14D
:104C78003A00BA210C4B0D4800F0C0FD2100226912
:104C88000C31023292000C3000F0AEFD2100019888
:104C9800FFF7A6FF3C002B1D9B00E31801355E6063
:104CA80025612000FEBDC046A97B0008BA7B00082C
:104CB8008022030052020020934201D21B041030CC
:104CC80080225204934201D208301B0280225205EE
:104CD800934201D204301B018022D205934203D3B0
:104CE800DB43DB0FC018704799009B0001D50230E9
:104CF800F9E703301142F6D12020F4E703680100F8
:104D080007221800104013420DD0063A0020134223
:104D180005D10230034203D0D34010000B60704726
:104D28009B080B60FBE79AB2002A01D110201B0CEC
:104D3800DAB2002A01D108301B0A1A0701D104305F
:104D48001B099A0701D102309B08DA07E9D4013020
:104D58005B08E6D12020E2E710B50C000121FFF73F
:104D6800FBFE002807D14621054C0200054B200018
:104D7800FF3100F043FD01234461036110BDC046CB
:104D8800BA7B0008A97B0008F0B514000A692369FA
:104D98000D008BB09A4202DB23000C001D0027692E
:104DA8002E696168BB190393A368BA19934200DAA4
:104DB8000131FFF7D1FE0290002806D1B121494BFD
:104DC8004948029A490000F019FD029B0022143359
:104DD8009C46BB199B0063440493634604998B4229
:104DE8002AD32300BF00143314350893B600DB1907
:104DF8000593AB190993042306932300059A1533E9
:104E080001959A4205D3131B153B9B0801339B0060
:104E18000693019B099A934210D3039B002B05DD4F
:104E2800049B043B04931B68002B56D0029B039AF7
:104E380018001A610BB0F0BD04C3CFE7019B1868D6
:104E480080B200281ED067460025089E02CE3B6827
:104E580007938BB243431A006B46090C9B8B414363
:104E6800D318079A5B19120C89181A0C8A189BB266
:104E7800150C12041A43059B04C7B342E6D86346CF
:104E8800069A9D50019B1868000C20D063462500A7
:104E9800614600271B6814352A680E6892B242439F
:104EA800360C9219D21916049BB21E430E6040CDDF
:104EB8004B68360C46439BB2120CF3189B18059AA4
:104EC8001F0C0431AA42E7D8624606995350019B49
:104ED8000433019304239C449BE7039B013B039306
:104EE8009BE7C046A97B0008BA7B0008F7B50323F7
:104EF800150007000E001A401D4208D02549013A46
:104F08009200525800233100FFF78EFE0600AD10C4
:104F18003DD0FC69002C0FD11020FFF767FD021E61
:104F2800F86105D1B4211C4B1C48FF3100F066FC28
:104F3800446084600460C460FB699C680193002C31
:104F480008D138001649FFF707FF019B0400986055
:104F58000023036001231D420AD0310022003800DB
:104F6800FFF712FF310001903800FFF739FE019E6C
:104F78006D100CD02068002807D1220021003800CD
:104F8800FFF702FF0023206003600400E2E730001F
:104F9800FEBDC046147C0008397B0008BA7B0008B7
:104FA80071020000F0B50C0016002369571185B096
:104FB800FB180193013300934968A3680290009A93
:104FC800934210DB0298FFF7C7FD0023010005009C
:104FD8001A00143198420CD1EF212A00254B26489B
:104FE800490000F00BFC01315B00E8E798000A502B
:104FF8000133BB42FADBFB43DB171F40BF00230032
:105008001F20C91937002269143392009A180740E3
:10501800064229D00130C01B03908C4600201E6830
:10502800BE400643604640C08446039E01CBF04024
:105038009A42F4D8260015360423B24204D3131B2F
:10504800153B9B0801339B00C850002802D0019BE8
:1050580002330093009B0298013B21002B61FFF76C
:10506800BFFD280005B0F0BD01CB01C19A42FBD8B5
:10507800F0E7C046A97B0008BA7B000830B50B6989
:1050880004690200E01A9C420FD114329B001431CB
:105098001400C918D218043A043915680B689D42DF
:1050A80004D001209D4200D2023830BD9442F2D390
:1050B800FBE70000F0B50C0087B00090110020005D
:1050C8001700FFF7DBFF051E10D101000098FFF75E
:1050D80043FD021E04D1404B4048414900F08EFB7D
:1050E800012345610361100007B0F0BD0026B042FE
:1050F80003DA23003C001F00013661680098FFF7BF
:105108002BFD021E03D1344B34483649E6E72369A8
:10511800143400939B00E318210001943C0002938F
:105128003B6914349B00E31803930300C6608C4664
:105138000020143304930593634620CBA9B20E00D4
:105148009C4608CC2D0C99B2711A09181B0C08142E
:10515800EB1A1B18181489B21B041943059B02C3C8
:105168000593039BA342E7D83900039C1531042318
:105178008C4204D3E31B153B9B0801339B00019928
:10518800CD1804992E00CB181F0002998E4211D316
:10519800029CE91E00208C4204D321000331491BE4
:1051A800890888001B18043B1968002910D0009B47
:1051B800136198E7844602CE88B2604400140C0C50
:1051C80004196144201489B22404214302C7DCE78E
:1051D800009901390091E6E7A97B0008BA7B00082D
:1051E8003702000045020000F7B5012116001F0034
:1051F800FFF7B2FC041E05D12200254B254826499D
:1052080000F0FCFA3B037D001B0B6D0D02D08022E1
:10521800520313430193002E25D068460096FFF7EA
:105228006DFD019B009900281BD020221E00121A38
:1052380096403200C3400A4362610193019EA66111
:10524800731E9E4101362661002D14D03526134B5E
:10525800ED18089B2D181D60099B361A1E6020004A
:10526800FEBD6161EAE701A8FFF748FD019B012641
:1052780063612030E7E70A4BC018089B1860094BA8
:10528800F3189B00E3185869FFF712FD7601E3E76E
:10529800A97B0008BA7B00080F030000CDFBFFFFC5
:1052A800CEFBFFFFFFFFFF3F936810B5013B936004
:1052B800002B04DA9469A34207DB0A2905D0136896
:1052C800581C10601970080010BDFEF735FB01006E
:1052D800F9E7F8B506000F001400D518AC4201D163
:1052E800002007E021783A003000FFF7DDFF0134A5
:1052F800431CF3D1F8BD0000F0B5A1B00F001500B4
:105308001E000390002804D0036A002B01D1FEF789
:1053180023FA7B6EDB0705D4BB899B0502D4B86DE5
:10532800FEF729FCBB891B0702D53B69002B13D16B
:1053380039000398FEF742FB00280DD07B6EDB078F
:1053480003D50120404221B0F0BDBB899B05F8D4AC
:10535800B86DFEF711FCF4E7002308AC6361203355
:1053680063761033A37607962E003378002B01D08E
:10537800252B48D1731B0593AE420BD02A00390068
:105388000398FFF7A6FF013000D1AEE06369059AE4
:105398009B1863613378002B00D1A6E0012200231B
:1053A8005242626004A954325218751C2360E360AB
:1053B800A3601370A365594B05221800297805933B
:1053C800FEF7DBFB6E1C00281FD12268D30604D52C
:1053D800532304A95B1820211970130704D55323FC
:1053E80004A95B182B2119702B782A2B16D02E00B4
:1053F80000210A20E3683278751C303A092A50D90E
:10540800002911D117E00136AFE7059B2268C01AC1
:1054180001238340134335002360CCE7079B191D04
:105428001B680791002B01DB0B9304E05B42E360F0
:1054380002231343236033782E2B0CD173782A2B45
:1054480034D1079B02361A1D1B680792002B01DA1C
:1054580001235B420993324D032228003178FEF77D
:105468008CFB002806D04023401B8340226801366D
:1054780013432360317806222A48751C2176FEF7EB
:105488007CFB002840D0284B002B22D10722079B09
:1054980007339343083307936369049A9B1863613E
:1054A80062E743432E0001219B18A4E700230A204A
:1054B8001900013663603278751C303A092A03D91D
:1054C800002BC8D00991C6E741432E000123891853
:1054D800F1E707AA009221003A00144B0398FDF760
:1054E800E7FC0490049B0133D6D17B6EDB0705D41F
:1054F800BB899B0502D4B86DFEF73EFBBB895B06F2
:1055080000D51EE70D981EE707AA009221003A0071
:10551800064B0398FDF776FFE3E7C046107D0008C9
:10552800167D00081A7D0008B92E0008DB52000815
:10553800F7B50C228B5E05000C001A0761D44A6887
:10554800002A02DC0A6C002A42DDE76A002F3FD0FD
:10555800002280202E682A601A004001216A024039
:10556800034227D0626DA3895B0706D56368D21A08
:10557800636B002B01D0236CD21A00232800E76A42
:10558800216AB847431C25D0002363602369236040
:10559800A389DB0400D56065616B2E60002917D0F4
:1055A80023004433994202D02800FFF7D5F900239D
:1055B80063630DE001232800B8470200431CD2D1E1
:1055C8002B68002BCFD01D2B01D0162B31D12E608C
:1055D800002035E02B680C21625E002B08D01D2BC3
:1055E80001D0162B0AD10023636023692360D3E717
:1055F800636023692360D204CDD4CDE740231343ED
:105608001BE00E69002EE3D00F680E60BA1B0192F2
:1056180000229B0700D14A69A260019B002BD7DDBD
:10562800A36A32001F002800019B216AB84700289E
:1056380007DC4023A28913431BB20120A381404207
:10564800FEBD019B36181B1A0193E6E70B6970B57E
:1056580005000C00002B02D10025280070BD002891
:1056680004D0036A002B01D1FEF776F80C22A35E62
:10567800002BF1D0626ED20704D49B0502D4A06D32
:10568800FEF779FA28002100FFF752FF636E050044
:10569800DB07E2D4A3899B05DFD4A06DFEF76CFA83
:1056A800DBE7000070B50E001D000E23C95E140074
:1056B80096B000290CDAB2898023110019401A42E9
:1056C80014D18023DB0000202960236016B070BD50
:1056D8006A4600F053F80028EDDBF02301991B021D
:1056E8001940044BC9184B425941EAE700214023AD
:1056F800E9E7C04600E0FFFFF0B502268B89050008
:105708000C0085B0334207D0230047332360236160
:105718000123636105B0F0BD03AB02AAFFF7C2FF26
:10572800029F019039002800FFF78CF9002808D162
:105738000C22A35E9A05EDD4032293431E43A6814F
:10574800E2E78023A28920601343A381039B2061A1
:105758006761002B0CD028000E23E15E00F020F8D2
:10576800002805D00323A2899A43023B1343A3814F
:10577800A389019A1343A381CCE70000002370B5E5
:10578800064D0400080011002B6000F009F9431CC5
:1057980003D12B68002B00D0236070BD600400206B
:1057A800002370B5064D040008002B6000F008F9CE
:1057B800431C03D12B68002B00D0236070BDC0466A
:1057C80060040020002370B5064D040008002B601B
:1057D80000F016F9431C03D12B68002B00D023607E
:1057E80070BDC04660040020002310B59A4200D165
:1057F80010BDCC5CC4540133F8E700007FB5140039
:105808001A00094B05001B680E00D868074B002CCE
:1058180001D1074B1C000749019302942B00009605
:1058280000F056F800F064F81C0000202B7D0008FA
:10583800667D0008387D000870B50B0C150C002B30
:105848001ED1002D0CD189B294B24C432100FFF730
:10585800F9F8051E1AD022000021FEF70DF916E00E
:105868002B1C0C1C89B292B24A439BB2A1B2594379
:10587800140C0C19230C07D1240492B21443E5E745
:10588800002D01D1141CEDE70C230360002528002E
:1058980070BD82B0002900D101A9101E06D0002BCE
:1058A80006D013780B601078431E984102B07047F9
:1058B80002204042FAE70300081E05D0FF2A04D957
:1058C8008A2201201A604042704701200A70FBE7D3
:1058D8000EB417B5054C05AB04CB01002068019345
:1058E800FFF70AFD1EBC08BC03B018471C000020C7
:1058F800062010B500F02CF8012000F08FF870B5E4
:1059080004000D001F2904D916230360012040421A
:1059180070BDC36B002B04D08A009B181A68002A3C
:1059280008D1200000F030F82A000100200000F023
:1059380019F8EDE7012A09D0511C03D11623036099
:105948000120E5E700212800196090470020DFE7E3
:1059580010B5034B01001868FFF7D1FF10BDC04612
:105968001C000020002370B5064D0400080011003B
:105978002B6000F02DF8431C03D12B68002B00D0BE
:10598800236070BD6004002010B500F011F810BD50
:1059980058220120014B40421A60704760040020E1
:1059A80058220120014B40421A60704760040020D1
:1059B80058220120014B40421A60704760040020C1
:1059C8005822024B00201A607047C046600400202D
:1059D80058220120014B40421A60704760040020A1
:1059E80058220120014B40421A6070476004002091
:1059F80058220120014B40421A6070476004002081
:105A0800044A03001068002802D0C31813607047C6
:105A18000148FAE77004002078040020FEE7C04639
:105A2800F0B5CE469946030C9C46130447461B0C1A
:105A38001D000E0061460404240C80B50700100CFC
:105A48004B436543414360432C0CC01824188C46D3
:105A5800A34203D980235B029846C444494679434C
:105A68005643230C2D042D0C891963442404601912
:105A7800C918C0BCB946B046F0BDC046F8B5CE4658
:105A8800474680B59146984604000D0001F0B2FEE5
:105A980007000E0002000B0048464146FFF7C0FF12
:105AA800241A8D41089B380031001C605D60C0BC21
:105AB800B946B046F8BDC046F0B557464E464546CD
:105AC800DE46E0B583B0009001910C034F00CE0F85
